:020000040800F2
:1000000000080020AD0100080902000809020008EC
:1000100009020008090200080902000800000000A7
:1000200000000000000000000000000009020008BD
:100030000902000800000000090200080902000887
:100040000902000809020008090200080902000864
:100050000902000809020008090200080902000854
:100060000902000809020008090200080902000844
:100070000902000809020008090200080902000834
:100080000902000809020008090200080902000824
:100090000902000809020008090200080902000814
:1000A0000902000809020008090200080902000804
:1000B00009020008090200080902000809020008F4
:1000C00009020008090200080902000809020008E4
:1000D00009020008090200080902000809020008D4
:1000E00009020008090200080902000809020008C4
:1000F00009020008090200080902000809020008B4
:1001000009020008090200080902000809020008A3
:100110000902000809020008090200080902000893
:100120000902000809020008090200080902000883
:100130000902000809020008090200080902000873
:100140000902000809020008090200080902000863
:100150000902000809020008090200080902000853
:100160000902000809020008090200080902000843
:100170000902000809020008090200080902000833
:10018000090200080902000880B483B000AF78605B
:100190000B467B807B88C3F308039AB27B689A8006
:1001A0000C37BD465DF8047B704700BF80B582B058
:1001B00000AF104B7B60104B3B6007E03B681A1DA3
:1001C0003A607A68111D796012681A603A680B4BC0
:1001D0009A42F3D30A480B494FF000028842B8BF55
:1001E00040F8042BFFF6FAAF00F012F80837BD46CE
:1001F00080BD00BF480C0008000000200000002067
:10020000000000200000002080B400AFFEE700BF27
:1002100080B584B000AF00F097F800F0EFF81E232F
:10022000FB601E23BB604FF08043DB6A7B600848A5
:100230006821FFF7A9FF074800F020F94FF0804040
:10024000142100F0F3FC034800F018F9EFE700BFB9
:1002500000440040A086010080B483B000AF786005
:100260000B46FB70FB78002B06D0094B084A116B3C
:100270007A680A431A6306E0054B054A116B7A68EF
:10028000D2430A401A630C37BD465DF8047B7047C1
:100290000038024080B483B000AF78600B46FB703A
:1002A000FB78002B06D0094B084A116C7A680A4388
:1002B0001A6406E0054B054A116C7A68D2430A407D
:1002C0001A640C37BD465DF8047B70470038024065
:1002D00080B483B000AF78600B46FB70FB78002BD6
:1002E00006D0094B084A516C7A680A435A6406E002
:1002F000054B054A516C7A68D2430A405A640C3760
:10030000BD465DF8047B70470038024080B483B07E
:1003100000AF78600B46FB70FB78002B06D0094BD2
:10032000084A516A7A680A435A6206E0054B054A50
:10033000516A7A68D2430A405A620C37BD465DF86A
:10034000047B70470038024080B58CB000AF0120BC
:100350000121FFF79FFF01200121FFF77DFF07F13A
:100360002003184600F01AFB4FF4A073FB62FB6AEF
:100370009BB2013B9BB23B8440F2E7337B6200239C
:100380007B8407F120034FF08040194600F09CFA6F
:100390006023BB810123FB8107F10C034FF08040F8
:1003A000194600F035FB07F10C034FF08040194669
:1003B00000F0B6FB4FF08040012100F009FB022362
:1003C0003B720023BB720123FB7200237B72062366
:1003D0007B6009480121012200F030FA0648022121
:1003E000012200F02BFA3B1D0348194600F098F952
:1003F0003037BD4680BD00BF0000024080B588B0E8
:1004000000AF4FF480700121FFF762FF042001214B
:10041000FFF722FF02233B6003233B710023FB71A4
:100420003B461448194600F07BF900F037F80023EA
:10043000BB610023BB6001237B7300233B614FF052
:1004400040737B6101233B7700233B7307F1080373
:100450000948194600F030F80748012100F080F8FB
:1004600005480B210122062300F096F82037BD46EF
:1004700080BD00BF000802400020014080B483B06E
:1004800000AF786000BF7B685A1E7A60002BFAD1FB
:100490000C37BD465DF8047B704700BF80B500AFE8
:1004A0004FF480700121FFF731FF4FF4807000217D
:1004B000FFF72CFF80BD00BF80B485B000AF78602F
:1004C00039600023FB600023FB727B685B68FB6084
:1004D000FB6823F0407323F48073FB603B681B7957
:1004E0001A023B681B681343FA681343FB607B687E
:1004F000FA685A607B689B68FB60FA68174B134088
:10050000FB603B681A693B68DB681A433B689B6881
:100510001A433B685B795B001343FA681343FB6043
:100520007B68FA689A607B68DB6AFB60FB6823F48F
:100530007003FB603B681B7D013BDAB2FB7A13431F
:10054000FB72FB7A1B05FA681343FB607B68FA6851
:10055000DA621437BD465DF8047B7047FDF7FFC0D3
:1005600080B483B000AF78600B46FB70FB78002B43
:1005700006D07B689B6843F001027B689A6005E0C7
:100580007B689B6823F001027B689A600C37BD464C
:100590005DF8047B704700BF80B485B000AF786021
:1005A000F970BA707B700023FB600023BB60FB789E
:1005B000092B23D97B68DB68FB60FB78A3F10A0277
:1005C00013465B001344072202FA03F3BB60BB68C7
:1005D000DB43FA681340FB607978FB78A3F10A02E9
:1005E00013465B00134401FA03F3BB60FA68BB686F
:1005F0001343FB607B68FA68DA601EE07B681B6966
:10060000FB60FA7813465B001344072202FA03F3F7
:10061000BB60BB68DB43FA681340FB607978FA780B
:1006200013465B00134401FA03F3BB60FA68BB682E
:100630001343FB607B68FA681A61BB78062B21D8EC
:100640007B685B6BFB60BB785A1E13469B001344B0
:100650001F2202FA03F3BB60BB68DB43FA68134056
:10066000FB60F978BB785A1E13469B00134401FACD
:1006700003F3BB60FA68BB681343FB607B68FA68EE
:100680005A6347E0BB780C2B21D87B681B6BFB605F
:10069000BB78DA1F13469B0013441F2202FA03F3B0
:1006A000BB60BB68DB43FA681340FB60F978BB783A
:1006B000DA1F13469B00134401FA03F3BB60FA6888
:1006C000BB681343FB607B68FA681A6322E07B68AF
:1006D000DB6AFB60BB78A3F10D0213469B00134459
:1006E0001F2202FA03F3BB60BB68DB43FA681340C6
:1006F000FB60F978BB78A3F10D0213469B0013440D
:1007000001FA03F3BB60FA68BB681343FB607B68C4
:10071000FA68DA621437BD465DF8047B704700BFA3
:1007200080B487B000AF7860396000237B6100231C
:100730003B610023FB6000237B6176E07B69012243
:1007400002FA03F33B613B681A683B691340FB60A4
:10075000FA683B699A4265D17B681A687B695B00DD
:10076000032101FA03F3DB431A407B681A607B68BC
:100770001A683B681B7919467B695B0001FA03F331
:100780001A437B681A603B681B79012B03D03B68D6
:100790001B79022B2ED17B689A687B695B00032151
:1007A00001FA03F3DB431A407B689A607B689A681E
:1007B0003B685B7919467B695B0001FA03F31A43D6
:1007C0007B689A607B685A687B699BB2012101FA59
:1007D00003F3DB431A407B685A607B685A683B68C6
:1007E0009B7919467B699BB201FA03F39BB21A43CA
:1007F0007B685A607B68DA687B699BB25B00032187
:1008000001FA03F3DB431A407B68DA607B68DA683D
:100810003B68DB7919467B695B0001FA03F31A43F5
:100820007B68DA607B6901337B617B690F2B85D93B
:100830001C37BD465DF8047B704700BF80B485B0AF
:1008400000AF786013460A467A807B700023FB6015
:100850000023BB607A787B8803F007039B0002FAD1
:1008600003F3FB607B88DB089BB21A467B88DB08BE
:100870009BB219467B68083153F821107B8803F03E
:1008800007039B000F2000FA03F3DB4319407B684A
:10089000083243F822107B88DB089BB21A467B683B
:1008A000083253F82220FB681343BB607B88DB08C7
:1008B0009BB21A467B680832B96843F82210143795
:1008C000BD465DF8047B704780B485B000AF7860AA
:1008D00039600023FB817B681B88FB817A68284B89
:1008E0009A4213D07A68274B9A420FD07B68B3F1B3
:1008F000804F0BD07A68244B9A4207D07A68234BFA
:100900009A4203D07A68224B9A4208D1FB8923F09D
:100910007003FB813B685A88FB891343FB817A682B
:100920001C4B9A420CD07A681B4B9A4208D0FB8928
:1009300023F44073FB813B681A89FB891343FB81D5
:100940007B68FA891A803B685A687B68DA623B6880
:100950001A887B681A857A68094B9A4203D07A68AC
:10096000084B9A4204D13B689B7A1A467B681A86E8
:100970007B6801229A821437BD465DF8047B70477C
:100980000000014000040140000400400008004055
:10099000000C0040001000400014004080B483B000
:1009A00000AF78607B684FF0FF325A607B680022AE
:1009B0001A807B6800221A817B6800225A807B683B
:1009C00000229A720C37BD465DF8047B704700BF69
:1009D00080B483B000AF78600B46FB70FB78002BCF
:1009E00008D07B681B889BB243F001039AB27B68F6
:1009F0001A8007E07B681B889BB223F001039AB240
:100A00007B681A800C37BD465DF8047B704700BFD9
:100A100080B485B000AF7860396000237B8100230B
:100A2000FB810023BB817B681B8C9BB223F01003EE
:100A30009AB27B681A847B681B8CFB817B689B88DD
:100A4000BB817B681B8B7B817B8923F4E0437B81AB
:100A50007B8923F440737B813B681B881B029AB21D
:100A60007B8913437B81FB8923F02003FB813B6857
:100A70009B891B019AB2FB891343FB813B685B880E
:100A80001B019AB2FB891343FB817A68224B9A427D
:100A900003D07A68214B9A422BD1FB8923F0800343
:100AA000FB813B68DB891B019AB2FB891343FB8105
:100AB000FB8923F04003FB813B689B881B019AB2B2
:100AC000FB891343FB81BB8923F48063BB81BB8912
:100AD00023F40063BB813B681B8A9B009AB2BB89ED
:100AE0001343BB813B685B8A9B009AB2BB8913436B
:100AF000BB817B68BA899A807B687A891A833B6854
:100B00009A687B689A637B68FA891A841437BD46B1
:100B10005DF8047B704700BF000001400004014005
:100B200080B485B000AF7860396000237B810023FA
:100B3000FB810023BB817B681B8C9BB223F48073F9
:100B40009AB27B681A847B681B8CFB817B689B88CC
:100B5000BB817B689B8B7B817B8923F070037B81CE
:100B60007B8923F003037B813B681A887B891343CD
:100B70007B81FB8923F40073FB813B689B891B020B
:100B80009AB2FB891343FB813B685B881B029AB2D4
:100B9000FB891343FB817A68224B9A4203D07A681F
:100BA000214B9A422BD1FB8923F40063FB813B68E4
:100BB000DB891B029AB2FB891343FB81FB8923F477
:100BC0008063FB813B689B881B029AB2FB891343BD
:100BD000FB81BB8923F48053BB81BB8923F4005381
:100BE000BB813B681B8A1B019AB2BB891343BB8143
:100BF0003B685B8A1B019AB2BB891343BB817B684C
:100C0000BA899A807B687A899A833B689A687B68FC
:100C1000DA637B68FA891A841437BD465DF8047B71
:100C2000704700BF000001400004014080B483B061
:100C300000AF786039607B683A689A630C37BD46CC
:080C40005DF8047B704700BF62
:0400000508000000EF
:00000001FF
