:020000040800F2
:100000000008002089010008E9010008E901000852
:10001000E9010008E9010008E9010008000000000A
:10002000000000000000000000000000E9010008DE
:10003000E901000800000000E9010008E9010008EA
:10004000E9010008E9010008E9010008E9010008E8
:10005000E9010008E9010008E9010008E9010008D8
:10006000E9010008E9010008E9010008E9010008C8
:10007000E9010008E9010008E9010008E9010008B8
:10008000E9010008E9010008E9010008E9010008A8
:10009000E9010008E9010008E9010008E901000898
:1000A000E9010008E9010008E9010008E901000888
:1000B000E9010008E9010008E9010008E901000878
:1000C000E9010008E9010008E9010008E901000868
:1000D000E9010008E9010008E9010008E901000858
:1000E000E9010008E9010008E9010008E901000848
:1000F000E9010008E9010008E9010008E901000838
:10010000E9010008E9010008E9010008E901000827
:10011000E9010008E9010008E9010008E901000817
:10012000E9010008E9010008E9010008E901000807
:10013000E9010008E9010008E9010008E9010008F7
:10014000E9010008E9010008E9010008E9010008E7
:10015000E9010008E9010008E9010008E9010008D7
:10016000E9010008E9010008E9010008E9010008C7
:10017000E9010008E9010008E9010008E9010008B7
:10018000E9010008E901000880B582B000AF40F63F
:100190009043C0F600037B6040F20003C2F200030C
:1001A0003B6007E03B681A1D3A607A68111D796070
:1001B00012681A603A6840F20003C2F200039A42E1
:1001C000F0D3074807494FF000028842B8BF40F813
:1001D000042BFADB00F00CF80837BD4680BD0000A8
:1001E000000000200000002080B400AFFEE700BF48
:1001F00080B584B000AF00F0E7F800F039F91E23B5
:10020000FB604FF08043DB6ABB6000F021F80346DF
:10021000FB8048F2A060C0F2010000F071F9FB8899
:100220005C2202FB03F303F6FF72002BB8BF1346F8
:100230001B131E33FB60FB684FF08040194600F033
:1002400019FD48F2A060C0F2010000F059F9DCE7A6
:1002500080B500AF4FF40050C4F2010000F0A4FAE2
:1002600000BF4FF40050C4F20100022100F0BAFABE
:100270000346002BF5D04FF40050C4F2010000F00B
:10028000A3FA0346184680BD80B483B000AF7860FF
:100290000B46FB70FB78002B0CD04FF46053C4F27C
:1002A00002034FF46052C4F20202116B7A680A43EF
:1002B0001A630CE04FF46053C4F202034FF460522F
:1002C000C4F20202116B7A68D2430A401A630C37F7
:1002D000BD465DF8047B704780B483B000AF7860A2
:1002E0000B46FB70FB78002B0CD04FF46053C4F22C
:1002F00002034FF46052C4F20202116C7A680A439E
:100300001A640CE04FF46053C4F202034FF46052DD
:10031000C4F20202116C7A68D2430A401A640C37A4
:10032000BD465DF8047B704780B483B000AF786051
:100330000B46FB70FB78002B0CD04FF46053C4F2DB
:1003400002034FF46052C4F20202516C7A680A430D
:100350005A640CE04FF46053C4F202034FF460524D
:10036000C4F20202516C7A68D2430A405A640C37D4
:10037000BD465DF8047B704780B483B000AF786001
:100380000B46FB70FB78002B0CD04FF46053C4F28B
:1003900002034FF46052C4F20202516A7A680A43BF
:1003A0005A620CE04FF46053C4F202034FF46052FF
:1003B000C4F20202516A7A68D2430A405A620C3788
:1003C000BD465DF8047B704780B58CB000AF01205E
:1003D0000121FFF781FF07F12003184600F066FBBB
:1003E0004FF4A073FB62FB6A9BB2013B9BB23B8460
:1003F00040F2E7337B6200237B8407F120034FF058
:100400008040194600F0DCFA07F10C03184600F0B2
:100410000FFC6023BB810123FB8107F10C034FF02C
:100420008040194600F07CFB4FF08040012100F035
:1004300057FB01200121FFF727FF0020C4F2020033
:100440000121012200F076FA02233B720023BB72E5
:100450000123FB7200237B7202237B603B1D002083
:10046000C4F20200194600F0D7F93037BD4680BD0E
:1004700080B588B000AF4FF480700121FFF754FFC2
:1004800004200121FFF700FF02233B6003233B719F
:100490000023FB713B464FF40060C4F20200194692
:1004A00000F0BAF900F03CF80023BB610023BB6008
:1004B00001237B7300233B614FF040737B61012379
:1004C0003B7700233B7307F108034FF40050C4F25D
:1004D0000100194600F032F84FF40050C4F2010058
:1004E000012100F081F84FF40050C4F201000B210B
:1004F0000122062300F094F82037BD4680BD00BFDE
:1005000080B483B000AF786000BF7B685A1E7A6009
:10051000002BFAD10C37BD465DF8047B704700BF55
:1005200080B500AF4FF480700121FFF725FF4FF435
:1005300080700021FFF720FF80BD00BF80B485B030
:1005400000AF786039600023FB600023FB727B689A
:100550005B68FB60FB6823F0407323F48073FB60EF
:100560003B681B791A023B681B681343FA68134304
:10057000FB607B68FA685A607B689B68FB60FA687E
:100580004FF2FD73CCF2FF031340FB603B681A6926
:100590003B68DB681A433B689B681A433B685B799E
:1005A0005B001343FA681343FB607B68FA689A6048
:1005B0007B68DB6AFB60FB6823F47003FB603B68CD
:1005C0001B7D013BDAB2FB7A1343FB72FB7A1B05FE
:1005D000FA681343FB607B68FA68DA621437BD4639
:1005E0005DF8047B704700BF80B483B000AF7860D3
:1005F0000B46FB70FB78002B06D07B689B6843F0B2
:1006000001027B689A6005E07B689B6823F0010229
:100610007B689A600C37BD465DF8047B704700BF6D
:1006200080B485B000AF7860F970BA707B70002339
:10063000FB600023BB60FB78092B23D97B68DB6858
:10064000FB60FB78A3F10A0213465B001344072208
:1006500002FA03F3BB60BB68DB43FA681340FB603C
:100660007978FB78A3F10A0213465B00134401FA80
:1006700003F3BB60FA68BB681343FB607B68FA68EE
:10068000DA601EE07B681B69FB60FA7813465B004A
:100690001344072202FA03F3BB60BB68DB43FA682A
:1006A0001340FB607978FA7813465B00134401FA33
:1006B00003F3BB60FA68BB681343FB607B68FA68AE
:1006C0001A61BB78062B21D87B685B6BFB60BB781B
:1006D0005A1E13469B0013441F2202FA03F3BB6009
:1006E000BB68DB43FA681340FB60F978BB785A1E9D
:1006F00013469B00134401FA03F3BB60FA68BB681E
:100700001343FB607B68FA685A6347E0BB780C2BA5
:1007100021D87B681B6BFB60BB78DA1F13469B00FC
:1007200013441F2202FA03F3BB60BB68DB43FA6881
:100730001340FB60F978BB78DA1F13469B00134423
:1007400001FA03F3BB60FA68BB681343FB607B6884
:10075000FA681A6322E07B68DB6AFB60BB78A3F16E
:100760000D0213469B0013441F2202FA03F3BB60E1
:10077000BB68DB43FA681340FB60F978BB78A3F1F0
:100780000D0213469B00134401FA03F3BB60FA68A1
:10079000BB681343FB607B68FA68DA621437BD46B6
:1007A0005DF8047B704700BF80B483B000AF786011
:1007B0007B689B6843F080427B689A600C37BD463B
:1007C0005DF8047B704700BF80B483B000AF7860F1
:1007D0007B68DB6C9BB218460C37BD465DF8047B2A
:1007E000704700BF80B485B000AF78600B46FB70E7
:1007F0000023FB737B681A68FB781340002B02D040
:100800000123FB7301E00023FB73FB7B18461437C5
:10081000BD465DF8047B704780B487B000AF786058
:10082000396000237B6100233B610023FB600023D0
:100830007B6176E07B69012202FA03F33B613B684E
:100840001A683B691340FB60FA683B699A4265D1BC
:100850007B681A687B695B00032101FA03F3DB43C1
:100860001A407B681A607B681A683B681B791946D6
:100870007B695B0001FA03F31A437B681A603B68EB
:100880001B79012B03D03B681B79022B2ED17B688F
:100890009A687B695B00032101FA03F3DB431A408A
:1008A0007B689A607B689A683B685B7919467B69CC
:1008B0005B0001FA03F31A437B689A607B685A680D
:1008C0007B699BB2012101FA03F3DB431A407B6889
:1008D0005A607B685A683B689B7919467B699BB272
:1008E00001FA03F39BB21A437B685A607B68DA68AB
:1008F0007B699BB25B00032101FA03F3DB431A40DF
:100900007B68DA607B68DA683B68DB7919467B696B
:100910005B0001FA03F31A437B68DA607B690133F9
:100920007B617B690F2B85D91C37BD465DF8047B45
:10093000704700BF80B485B000AF786013460A46A8
:100940007A807B700023FB600023BB607A787B8811
:1009500003F007039B0002FA03F3FB607B88DB08CC
:100960009BB21A467B88DB089BB219467B6808312C
:1009700053F821107B8803F007039B000F2000FA37
:1009800003F3DB4319407B68083243F822107B886D
:10099000DB089BB21A467B68083253F82220FB68BA
:1009A0001343BB607B88DB089BB21A467B68083226
:1009B000B96843F822101437BD465DF8047B7047D0
:1009C00080B485B000AF786039600023FB817B681C
:1009D0001B88FB817A680023C4F201039A421FD06E
:1009E0007A684FF48063C4F201039A4218D07B689E
:1009F000B3F1804F14D07A684FF48063C4F20003DF
:100A00009A420DD07A684FF40063C4F200039A4210
:100A100006D07A684FF44063C4F200039A4208D1CA
:100A2000FB8923F07003FB813B685A88FB891343E1
:100A3000FB817A684FF48053C4F200039A420FD0CE
:100A40007A684FF4A053C4F200039A4208D0FB899D
:100A500023F44073FB813B681A89FB891343FB81B4
:100A60007B68FA891A803B685A687B68DA623B685F
:100A70001A887B681A857A680023C4F201039A42B7
:100A800006D07A684FF48063C4F201039A4204D11D
:100A90003B689B7A1A467B681A867B6801229A8299
:100AA0001437BD465DF8047B704700BF80B483B047
:100AB00000AF78607B684FF0FF325A607B6800229D
:100AC0001A807B6800221A817B6800225A807B682A
:100AD00000229A720C37BD465DF8047B704700BF58
:100AE00080B483B000AF78600B46FB70FB78002BBE
:100AF00008D07B681B889BB243F001039AB27B68E5
:100B00001A8007E07B681B889BB223F001039AB22E
:100B10007B681A800C37BD465DF8047B704700BFC8
:100B200080B485B000AF7860396000237B810023FA
:100B3000FB810023BB817B681B8C9BB223F01003DD
:100B40009AB27B681A847B681B8CFB817B689B88CC
:100B5000BB817B681B8B7B817B8923F4E0437B819A
:100B60007B8923F440737B813B681B881B029AB20C
:100B70007B8913437B81FB8923F02003FB813B6846
:100B80009B891B019AB2FB891343FB813B685B88FD
:100B90001B019AB2FB891343FB817A680023C4F2DC
:100BA00001039A4206D07A684FF48063C4F20103CD
:100BB0009A422BD1FB8923F08003FB813B68DB89C0
:100BC0001B019AB2FB891343FB81FB8923F040038D
:100BD000FB813B689B881B019AB2FB891343FB8115
:100BE000BB8923F48063BB81BB8923F40063BB8191
:100BF0003B681B8A9B009AB2BB891343BB813B684D
:100C00005B8A9B009AB2BB891343BB817B68BA891C
:100C10009A807B687A891A833B689A687B689A63B2
:100C20007B68FA891A841437BD465DF8047B7047E7
:100C300080B483B000AF78607B6800221A807B6844
:100C400000225A807B6800229A807B6800229A608A
:100C50007B6800229A817B680022DA817B6800220F
:100C60001A827B6800225A820C37BD465DF8047BED
:100C7000704700BF80B483B000AF786039607B6894
:100C80003A689A630C37BD465DF8047B704700BF35
:0400000508000000EF
:00000001FF
