:020000040800F2
:10000000780C0020F10300084D0400084D0400089E
:100010004D0400084D0400084D04000800000000D5
:100020000000000000000000000000004D04000877
:100030004D040008000000004D0400084D040008B5
:100040004D0400084D0400084D0400084D0400084C
:100050004D0400084D0400084D0400084D0400083C
:100060004D0400084D0400084D0400084D0400082C
:100070004D0400084D0400084D0400084D0400081C
:100080004D0400084D0400084D0400084D0400080C
:100090004D0400084D0400084D0400084D040008FC
:1000A0004D0400084D0400084D0400084D040008EC
:1000B0004D0400084D0400084D0400084D040008DC
:1000C0004D0400084D0400084D0400084D040008CC
:1000D0004D0400084D0400084D04000831050008D7
:1000E0004D0400084D0400084D0400084D040008AC
:1000F0004D0400084D0400084D0400084D0400089C
:100100004D0400084D0400084D0400084D0400088B
:100110004D0400084D0400084D0400084D0400087B
:100120004D0400084D0400084D0400084D0400086B
:100130004D0400084D0400084D0400084D0400085B
:100140004D0400084D0400084D0400084D0400084B
:100150004D0400084D0400084D0400084D0400083B
:100160004D0400084D0400084D0400084D0400082B
:100170004D0400084D0400084D0400084D0400081B
:100180004D0400084D04000880B58AB000AF7860C7
:10019000396000237B6200233B620023FB61002364
:1001A000BB617B681B8A9BB27B627B6A23F44053F2
:1001B0007B623B68DB887A6A13437B627B6A9AB214
:1001C0007B681A827B689B899BB27B627B6A23F483
:1001D000B05323F00C037B623B689A883B681B8911
:1001E00013439AB23B685B8913439BB27A6A134309
:1001F0007B627B6A9AB27B689A817B689B8A9BB29E
:100200007B627B6A23F440737B623B689B897A6ADA
:1002100013437B627B6A9AB27B689A8207F1080378
:10022000184600F0A1FC7A68314B9A4203D07A68F4
:10023000304B9A4202D17B693B6201E03B693B62F1
:100240007B689B899BB29BB21BB2002B0CDA3A6A8B
:1002500013469B0013449A001A443B681B685B00DA
:10026000B2FBF3F3FB610BE03A6A13469B001344C5
:100270009A001A443B681B689B00B2FBF3F3FB61D6
:10028000FA691D4BA3FB02135B091B017B627B6AAE
:100290001B09642202FB03F3FA69D31ABB617B6872
:1002A0009B899BB29BB21BB2002B0DDABB69DB00B2
:1002B00003F13202104BA3FB02135B0903F00703A7
:1002C0007A6A13437B620CE0BB691B0103F13202C3
:1002D000094BA3FB02135B0903F00F037A6A134374
:1002E0007B627B6A9AB27B681A812837BD4680BDE3
:1002F00000100140001401401F85EB5180B483B011
:1003000000AF78600B46FB70FB78002B08D07B6851
:100310009B899BB243F400539AB27B689A8107E0B1
:100320007B689B899BB223F400539AB27B689A81C5
:100330000C37BD465DF8047B704700BF80B483B0C6
:1003400000AF78600B467B807B88C3F308039AB2CA
:100350007B689A800C37BD465DF8047B704700BF10
:1003600080B487B000AF786013460A467A807B700D
:1003700000233B610023FB600023BB6000237B6103
:100380007B687B617B88DBB25B09DBB23B617B888E
:1003900003F01F03FB60FB68012202FA03F3BB605A
:1003A0003B69012B03D17B690C337B6109E03B691D
:1003B000022B03D17B6910337B6102E07B6914332C
:1003C0007B617B78002B06D07B697A691168BA68FB
:1003D0000A431A6006E07B697A691168BA68D243F9
:1003E0000A401A601C37BD465DF8047B704700BFA9
:1003F00080B582B000AF104B7B60104B3B6007E0D4
:100400003B681A1D3A607A68111D796012681A609B
:100410003A680B4B9A42F3D30A480B494FF000025B
:100420008842B8BF40F8042BFFF6FAAF00F012F88C
:100430000837BD4680BD00BF281B00080000002013
:1004400040040020400400207404002080B400AF69
:10045000FEE700BF80B500AF00F06CFC00F008F8CC
:1004600000F012F800F088FA00F030F8FEE700BF64
:1004700080B500AF4FF48020012100F03DFC022048
:10048000012100F01BFC80BD80B582B000AF4FF4AD
:1004900040633B6002233B710023BB710023FB716F
:1004A00002237B713B460848194600F0F9FF0648D5
:1004B0000A21072201F0D0F803480B21072201F09E
:1004C000CBF80837BD4680BD0004024080B586B039
:1004D00000AF4FF4E133BB600023BB810023FB81FD
:1004E00000233B820023BB820C237B8207F108039D
:1004F0000E481946FFF748FE0C4840F225510122EC
:10050000FFF72EFF27233B7100237B710023BB7174
:100510000123FB713B1D184601F0E4F8034801215B
:10052000FFF7ECFE1837BD4680BD00BF0048004015
:1005300080B582B000AF574B9B889BB2FB71564B86
:100540001B78032B0BD8544B1B78544AF979D154A0
:10055000514B1B780133DAB24F4B1A7097E04E4B78
:1005600000221A700023FB714C4B1B78DBB2302B3E
:100570001AD14B48802101F03BF8484B5B78DBB245
:10058000303B184600F07CFA464800F02DFC00F0A5
:1005900023F903469BB23F481946FFF7CFFE404878
:1005A000802101F033F872E03C4B1B78DBB2332B37
:1005B0003DD13A4BDB78DBB2FF2B1DD1374BDB78DB
:1005C000DBB2184600F014FF002000F071F80120A3
:1005D00000F06EF8022000F06BF8032000F068F8DD
:1005E000042000F065F8052000F062F8062000F015
:1005F0005FF8072000F05CF82948802100F0F8FF40
:10060000264B5B78DBB2303B184600F039FA2548C0
:1006100000F0EAFB00F048F903469BB21D4819467A
:10062000FFF78CFE1E48802100F0F0FF2FE01B4BEF
:100630001B78DBB2312B2AD11B48082100F0E6FFE2
:10064000164B5B78DBB2303B184600F019FA1748BE
:1006500000F0CAFB114BDB78DBB2312B07D10F4B1B
:100660009B78DBB2303B184600F022F80BE00B4BD6
:10067000DB78DBB2302B06D1084B9B78DBB2303B0A
:10068000184600F05FF80848082100F0B1FF08376D
:10069000BD4680BD00480040400400206C0400209E
:1006A00000000240404B4C0000100240A0860100B8
:1006B00080B582B000AF78607B68002B04D11F4802
:1006C000012100F095FF36E07B68012B04D11B4827
:1006D000022100F08DFF2EE07B68022B04D1174829
:1006E000042100F085FF26E07B68032B04D113482A
:1006F000082100F07DFF1EE07B68042B04D1104828
:10070000012100F075FF16E07B68052B04D10C4831
:10071000022100F06DFF0EE07B68062B04D1084833
:10072000042100F065FF06E07B68072B03D1044835
:10073000082100F05DFF0837BD4680BD0000024083
:100740000008024080B582B000AF78607B68002B63
:1007500004D11F48012100F059FF36E07B68012BCE
:1007600004D11B48022100F051FF2EE07B68022BD0
:1007700004D11748042100F049FF26E07B68032BD1
:1007800004D11348082100F041FF1EE07B68042BD0
:1007900004D11048012100F039FF16E07B68052BD9
:1007A00004D10C48022100F031FF0EE07B68062BDB
:1007B00004D10848042100F029FF06E07B68072BDC
:1007C00003D10448082100F021FF0837BD4680BD51
:1007D000000002400008024090B583B000AF002343
:1007E0007B603048012100F0E9FE0346002B0CBF7E
:1007F00000230123DBB21C462A48022100F0DEFE62
:100800000346002B01D0022300E000231C442548AE
:10081000042100F0D3FE0346002B01D0042300E0A6
:1008200000231C441F48082100F0C8FE0346002B8B
:1008300001D0082300E000231C441A48102100F0D6
:10084000BDFE0346002B01D0102300E000231C4412
:1008500014484FF4806100F0B1FE0346002B01D034
:10086000202300E000231C440E484FF4006100F0F8
:10087000A5FE0346002B01D0402300E000231C44CA
:1008800008484FF4805100F099FE0346002B01D038
:10089000802300E0002323447B607B6818460C37EC
:1008A000BD4690BD000C024090B583B000AF002360
:1008B0007B602F48012100F081FE0346002B0CBF16
:1008C00000230123DBB21C462948022100F076FEFA
:1008D0000346002B01D0022300E000231C442448DF
:1008E000042100F06BFE0346002B01D0042300E03E
:1008F00000231C441E48082100F060FE0346002B24
:1009000001D0082300E000231C441A48012100F014
:1009100055FE0346002B01D0102300E000231C44A9
:100920001448022100F04AFE0346002B01D0202388
:1009300000E000231C440F48042100F03FFE034662
:10094000002B01D0402300E000231C44094808216B
:1009500000F034FE0346002B01D0802300E000238A
:1009600023447B607B6818460C37BD4690BD00BFB2
:10097000000002400008024080B582B000AF0820AD
:10098000012100F09BF907233B6001233B71022307
:100990007B710123BB710123FB713B462F48194634
:1009A00000F07EFD0120012100F088F907233B6063
:1009B00001233B7102237B710123BB710123FB7176
:1009C0003B462748194600F06BFD0420012100F04A
:1009D00075F907233B6001233B7102237B710123DF
:1009E000BB710123FB713B461E48194600F058FDC0
:1009F0001020012100F062F907233B6000233B71C6
:100A000002237B710023BB710123FB713B46164817
:100A1000194600F045FD1448082100F0E9FD124890
:100A2000102100F0F3FD1048202100F0EFFD04201C
:100A3000012100F043F90F233B6001233B710223A6
:100A40007B710023BB710223FB713B4607481946AB
:100A500000F026FD0837BD4680BD00BF000C0240F7
:100A6000000002400008024000100240001C02404A
:100A700080B500AF014800F0B7F980BD404B4C0095
:100A800080B582B000AF78607B68002B0FD135480D
:100A90000121002200F0C8FD3248022100F0B6FD1D
:100AA0003048042100F0B2FDFFF7E2FF56E07B681A
:100AB000012B0ED12B48012100F09AFD294802217B
:100AC00000F0A4FD2748042100F0A0FDFFF7D0FFAF
:100AD00044E07B68022B0ED12248012100F096FDF4
:100AE0002048022100F084FD1E48042100F08EFD04
:100AF000FFF7BEFF32E07B68032B0ED119480121BE
:100B000000F076FD1748022100F072FD154804211F
:100B100000F07CFDFFF7ACFF20E07B68042B0CD1DC
:100B20001048012100F064FD0E48022100F06EFD26
:100B30000C48042100F05CFD10E07B68052B0DD112
:100B40000848012100F054FD0648022100F05EFD36
:100B50000448042100F04CFDFFF78AFF0837BD462A
:100B600080BD00BF0010024080B489B000AF786043
:100B70000023BB6100237B610023FB6102233B61F7
:100B80000023FB600223BB60484B9B6803F00C030F
:100B9000BB61BB69042B07D0082B09D0002B3FD1C8
:100BA0007B68434A1A603FE07B68424A1A603BE038
:100BB0003E4B5B6803F480039B0DFB603B4B5B6823
:100BC00003F03F03BB60FB68002B0DD0394ABB68C4
:100BD000B2FBF3F2354B596847F6C0730B409B09E3
:100BE00003FB02F3FB610CE0314ABB68B2FBF3F29A
:100BF0002E4B596847F6C0730B409B0903FB02F369
:100C0000FB612A4B5B6803F440331B0C01335B0030
:100C10003B61FA693B69B2FBF3F27B681A6003E05F
:100C20007B68234A1A6000BF204B9B6803F0F003E7
:100C3000BB61BB691B09BB611F4ABB6913441B78BD
:100C4000DBB27B617B681A687B69DA407B685A603B
:100C5000164B9B6803F4E053BB61BB699B0ABB6105
:100C6000154ABB6913441B78DBB27B617B685A6809
:100C70007B69DA407B689A600C4B9B6803F46043A5
:100C8000BB61BB695B0BBB610B4ABB6913441B783F
:100C9000DBB27B617B685A687B69DA407B68DA602B
:100CA0002437BD465DF8047B704700BF0038024022
:100CB0000024F40040787D010000002080B483B05F
:100CC00000AF78600B46FB70FB78002B06D0094B19
:100CD000084A116B7A680A431A6306E0054B054A15
:100CE000116B7A68D2430A401A630C37BD465DF82F
:100CF000047B70470038024080B483B000AF786056
:100D00000B46FB70FB78002B06D0094B084A116C90
:100D10007A680A431A6406E0054B054A116C7A6842
:100D2000D2430A401A640C37BD465DF8047B704715
:100D30000038024080B58CB000AF01200121FFF7E0
:100D4000DBFF01200121FFF7B9FF07F1200318465F
:100D500000F090FD4FF4A073FB62FB6A9BB2013B75
:100D60009BB23B8440F2E7337B6200237B8407F134
:100D700020034FF08040194600F012FD6023BB8134
:100D80000123FB8107F10C034FF08040194600F06E
:100D9000ABFD07F10C034FF08040194600F02CFE2C
:100DA0004FF08040012100F07FFD02233B720023C1
:100DB000BB720123FB7200237B7206237B60094810
:100DC0000121012200F048FC06480221012200F026
:100DD00043FC3B1D0348194600F062FB3037BD461B
:100DE00080BD00BF0000024080B483B000AF7860D7
:100DF00000BF7B685A1E7A60002BFAD10C37BD46C3
:100E00005DF8047B704700BF80B483B000AF034639
:100E1000FB710C37BD465DF8047B704780B483B02E
:100E200000AF78600B46FB707B68FA781A7001237C
:100E300018460C37BD465DF8047B704780B485B01A
:100E400000AF786039600023FB600AE07B685A1CC1
:100E50007A603A68511C396012781A70FB68013365
:100E6000FB603B681B78002BF0D1FB6818461437F9
:100E7000BD465DF8047B704780B586B000AFF86072
:100E80007A603B600B46FB7200237B617B68013B11
:100E90007B603B68092B10D93A681E4BA3FB0213F9
:100EA000DB08FA7AF86811467A68FFF7E5FF78619F
:100EB0007B69FA681344FB6011E00DE0FB7AF86887
:100EC0001946FFF7ABFFFB680133FB607B69013319
:100ED0007B617B68013B7B607B68002BEEDC3968C3
:100EE0000C4BA3FB0123DA0813469B0013445B0061
:100EF000CA1AD3B23033DBB2F8681946FFF78EFF57
:100F000003467A6913447B617B6918461837BD46EE
:100F100080BD00BFCDCCCCCC80B586B000AFF86032
:100F20007A603B600B46FB7200237B613B68002BC1
:100F300003DA3B685B423B6101E03B683B617B68F5
:100F4000013B7B603B69092B21D93B68002B0DDA03
:100F50003A692F4BA3FB0213DB085B42FA7AF8686D
:100F600011467A68FFF7D8FF78610BE03A69284BA1
:100F7000A3FB0213DB08FA7AF86811467A68FFF7D8
:100F8000CBFF78617B69FA681344FB6026E03B681D
:100F9000002B03DA7B68013B7B600EE00DE0FB7AFF
:100FA000F8681946FFF73AFFFB680133FB607B697D
:100FB00001337B617B68013B7B607B68002BEEDC4F
:100FC0003B68002B0ADAF8682D21FFF727FF03465C
:100FD0007A6913447B61FB680133FB6039690C4B10
:100FE000A3FB0123DA0813469B0013445B00CA1AD3
:100FF000D3B23033DBB2F8681946FFF70FFF034670
:101000007A6913447B617B6918461837BD4680BDF9
:10101000CDCCCCCC80B588B002AFF8607A600A46FF
:10102000FA72BB7200237B617B68013B7B603B6A89
:101030001B09002B12D03B6A1909FA7ABB7A00917E
:10104000F86811467A68FFF7E5FF03467A691344AA
:101050007B617B69FA681344FB6011E00DE0FB7A69
:10106000F8681946FFF7DAFEFB680133FB607B691D
:1010700001337B617B68013B7B607B68002BEEDC8E
:101080003B6A03F00F03092B0BD83B6ADBB203F07A
:101090000F03DBB23033DBB2F8681946FFF7BEFE50
:1010A00019E0BB7A002B0BD03B6ADBB203F00F03D5
:1010B000DBB23733DBB2F8681946FFF7AFFE0AE060
:1010C0003B6ADBB203F00F03DBB25733DBB2F868E5
:1010D0001946FFF7A3FE7B6901337B617B691846E4
:1010E0001837BD4680BD00BF80B58AB002AFF8603A
:1010F000B9607A603B600023BB6100237B61FB68C1
:10110000002B03D0FB6800221A70F8E0F7E07B6840
:101110001B78252B0BD0FB685A1CFA607A68511C8F
:10112000796012781A707B6901337B61E7E07B6834
:1011300001331B78252B0BD1FB685A1CFA60252242
:101140001A707B6802337B607B6901337B61D6E078
:101150002023FB770023BB777B6801337B607B68B0
:101160001B78302B05D13023FB777B6801337B6004
:101170000FE00EE0BB7F1A46920013445B00DAB228
:101180007B681B781344DBB2303BBB777B68013351
:101190007B607B681B782F2B03D97B681B78392BEE
:1011A000E8D9BA7F7B6913441A46BB689A4205D9CD
:1011B000BB68DAB27B69DBB2D31ABB777B681B787A
:1011C000583B202B00F28D8001A252F823F000BF83
:1011D0009D120008E3120008E3120008E312000861
:1011E000E3120008E3120008E3120008E31200080B
:1011F000E3120008E3120008E3120008CD12000811
:1012000055120008E3120008E3120008E312000878
:10121000E312000855120008E3120008E312000868
:10122000E3120008E3120008E3120008E3120008CA
:10123000E3120008E3120008E3120008B9120008E4
:10124000E31200086B120008E3120008E312000822
:1012500081120008BA7F3B68191D39601B68F97F4D
:10126000F868FFF759FEB8613EE0BA7F3B68191D88
:1012700039601B68F97FF868FFF7FEFDB86133E05D
:10128000BA7F3B68191D39601968FB7F0091F868C7
:1012900019460023FFF7BEFEB86125E0BA7F3B6820
:1012A000191D39601968FB7F0091F8681946012300
:1012B000FFF7B0FEB86117E03B681A1D3A601B6883
:1012C000F8681946FFF7BAFDB8610DE03B681A1DD2
:1012D0003A601B68DBB2F8681946FFF79FFDB861FA
:1012E00002E04FF0FF3325E07B6801337B60BB6990
:1012F000FA681344FB607A69BB6913447B617B68BD
:101300001B78002B04D07A69BB689A42FFF4FFAEC9
:101310007A69BB689A4203D2FB6800221A7008E01F
:10132000FB68013BFB60FB6800221A707B69013B94
:101330007B617B6918462037BD4680BD80B584B08F
:1013400000AFF860B9607A60F8686421BA687B68B9
:10135000FFF7CAFE034618461037BD4680BD00BFE2
:10136000B0B5A6B000AFF860B9607A60144B07F171
:1013700010041D460FCD0FC40FCD0FC42B68236082
:1013800007F134031846B9687A68FFF7D7FF0346B8
:10139000632B09DD0B4B1B68DB6807F1100210465D
:1013A000194600F059F8FEE707F134031846F968CA
:1013B00000F052F8034618469837BD46B0BD00BF4E
:1013C000041B00083804002080B582B000AF7860AC
:1013D0003960064B1B689B68184679683A68FFF7C6
:1013E000BFFF034618460837BD4680BD38040020BD
:1013F0000FB480B582B000AF07F114033B603869C9
:101400003968FFF7E1FF78607B6818460837BD460A
:10141000BDE8804004B0704780B582B000AF78600E
:1014200039600C4B1B689A683B689A4205D0094B9F
:101430001B68DA683B689A4206D17B68DBB21846C3
:10144000FFF7E2FC7B6801E04FF0FF3318460837F6
:10145000BD4680BD3804002080B584B000AF786000
:1014600039600023FB6012E07B681B7818463968FE
:10147000FFF7D2FF0346B3F1FF3F02D14FF0FF3336
:101480000AE0FB680133FB607B6801337B607B68AB
:101490001B78002BE8D1FB6818461037BD4680BD8D
:1014A00080B487B000AF7860396000237B6100238F
:1014B0003B610023FB6000237B6176E07B690122B6
:1014C00002FA03F33B613B681A683B691340FB6017
:1014D000FA683B699A4265D17B681A687B695B0050
:1014E000032101FA03F3DB431A407B681A607B682F
:1014F0001A683B681B7919467B695B0001FA03F3A4
:101500001A437B681A603B681B79012B03D03B6848
:101510001B79022B2ED17B689A687B695B000321C3
:1015200001FA03F3DB431A407B689A607B689A6890
:101530003B685B7919467B695B0001FA03F31A4348
:101540007B689A607B685A687B699BB2012101FACB
:1015500003F3DB431A407B685A607B685A683B6838
:101560009B7919467B699BB201FA03F39BB21A433C
:101570007B685A607B68DA687B699BB25B000321F9
:1015800001FA03F3DB431A407B68DA607B68DA68B0
:101590003B68DB7919467B695B0001FA03F31A4368
:1015A0007B68DA607B6901337B617B690F2B85D9AE
:1015B0001C37BD465DF8047B704700BF80B485B022
:1015C00000AF78600B467B800023FB737B681A6951
:1015D0007B881340002B02D00123FB7301E0002322
:1015E000FB73FB7B18461437BD465DF8047B7047E0
:1015F00080B483B000AF78600B467B807B687A88CC
:101600001A830C37BD465DF8047B704780B483B005
:1016100000AF78600B467B807B687A885A830C37F2
:10162000BD465DF8047B704780B483B000AF78603E
:1016300013460A467A807B707B78002B03D07B6848
:101640007A881A8302E07B687A885A830C37BD4611
:101650005DF8047B704700BF80B485B000AF786050
:1016600013460A467A807B700023FB600023BB6030
:101670007A787B8803F007039B0002FA03F3FB6090
:101680007B88DB089BB21A467B88DB089BB2194635
:101690007B68083153F821107B8803F007039B0017
:1016A0000F2000FA03F3DB4319407B68083243F84C
:1016B00022107B88DB089BB21A467B68083253F8FD
:1016C0002220FB681343BB607B88DB089BB21A4671
:1016D0007B680832B96843F822101437BD465DF8BC
:1016E000047B704780B485B000AF78600023FB7343
:1016F0000023BB730F237B737B68DB78002B37D011
:10170000254BDB68DB4303F4E0631B0AFB73FB7BC5
:10171000C3F10403BB737A7BFB7B42FA03F37B7355
:101720007B685B781A46BB7B02FA03F3FB737B682A
:101730009A787B7B1340DAB2FB7B1343FB73FB7B12
:101740001B01FB73154A7B681B781344FA7B83F8F3
:101750000023124B7A6812785209D2B2796809785C
:1017600001F01F01012000FA01F143F822100EE000
:101770000A4B7A6812785209D2B27968097801F076
:101780001F01012000FA01F1203243F82210143722
:10179000BD465DF8047B704700ED00E000E100E02D
:1017A00080B485B000AF786039600023FB817B682E
:1017B0001B88FB817A68284B9A4213D07A68274BA2
:1017C0009A420FD07B68B3F1804F0BD07A68244BDC
:1017D0009A4207D07A68234B9A4203D07A68224B08
:1017E0009A4208D1FB8923F07003FB813B685A8839
:1017F000FB891343FB817A681C4B9A420CD07A68B0
:101800001B4B9A4208D0FB8923F44073FB813B6851
:101810001A89FB891343FB817B68FA891A803B682C
:101820005A687B68DA623B681A887B681A857A682E
:10183000094B9A4203D07A68084B9A4204D13B681C
:101840009B7A1A467B681A867B6801229A82143733
:10185000BD465DF8047B7047000001400004014074
:101860000004004000080040000C00400010004050
:101870000014004080B483B000AF78607B684FF004
:10188000FF325A607B6800221A807B6800221A812E
:101890007B6800225A807B6800229A720C37BD4612
:1018A0005DF8047B704700BF80B483B000AF786000
:1018B0000B46FB70FB78002B08D07B681B889BB223
:1018C00043F001039AB27B681A8007E07B681B88AB
:1018D0009BB223F001039AB27B681A800C37BD4695
:1018E0005DF8047B704700BF80B485B000AF7860BE
:1018F000396000237B810023FB810023BB817B684F
:101900001B8C9BB223F010039AB27B681A847B680D
:101910001B8CFB817B689B88BB817B681B8B7B81DD
:101920007B8923F4E0437B817B8923F440737B81B3
:101930003B681B881B029AB27B8913437B81FB891E
:1019400023F02003FB813B689B891B019AB2FB8932
:101950001343FB813B685B881B019AB2FB891343ED
:10196000FB817A68224B9A4203D07A68214B9A42D3
:101970002BD1FB8923F08003FB813B68DB891B01B2
:101980009AB2FB891343FB81FB8923F04003FB815F
:101990003B689B881B019AB2FB891343FB81BB897F
:1019A00023F48063BB81BB8923F40063BB813B6864
:1019B0001B8A9B009AB2BB891343BB813B685B8A3D
:1019C0009B009AB2BB891343BB817B68BA899A801A
:1019D0007B687A891A833B689A687B689A637B681C
:1019E000FA891A841437BD465DF8047B704700BF3E
:1019F000000001400004014080B485B000AF786071
:101A0000396000237B810023FB810023BB817B683D
:101A10001B8C9BB223F480739AB27B681A847B6818
:101A20001B8CFB817B689B88BB817B689B8B7B814C
:101A30007B8923F070037B817B8923F003037B8107
:101A40003B681A887B8913437B81FB8923F40073ED
:101A5000FB813B689B891B029AB2FB891343FB8184
:101A60003B685B881B029AB2FB891343FB817A684F
:101A7000224B9A4203D07A68214B9A422BD1FB89A0
:101A800023F40063FB813B68DB891B029AB2FB896C
:101A90001343FB81FB8923F48063FB813B689B88B4
:101AA0001B029AB2FB891343FB81BB8923F4805349
:101AB000BB81BB8923F40053BB813B681B8A1B019C
:101AC0009AB2BB891343BB813B685B8A1B019AB204
:101AD000BB891343BB817B68BA899A807B687A890A
:101AE0009A833B689A687B68DA637B68FA891A8410
:101AF0001437BD465DF8047B704700BF000001400D
:101B000000040140737464696F2E633A20696E6348
:101B10007265617365204D41585F535452494E4779
:081B20005F53495A450A0D000C
:101B2800000000000102030401020304060708097B
:101B3800000000000000000001000000000000009C
:101B4800000000000000000000000000000000008D
:101B5800000000000000000000000000000000007D
:101B6800000000000000000000000000000000006D
:101B7800000000000000000000000000000000005D
:101F58000000000000000000100000200000000049
:0400000508000000EF
:00000001FF
